:040000000C940E014D
:100044000C94710F0C94BC0F0C9407100C94521068
:040064000C948D115A
:1400E4008401008A01009001009601009C0100A30100AA01E4
:1400F800003D02003D02003D0200DB0100E10100E70100EDA4
:14010C0001003D02003D02003D02003D02003D02003D020064
:14012000FB01002C02003202003B0200B61C00AE1D007D1CFA
:1401340000AE1D00AE1D00AE1D00EB1C000C1D002D1D004E8E
:140148001D006F1D00811D00931D009B1D00A31D00AE1D0069
:14015C00AE1D006B1C00AE1D00721C000000803F000203061A
:1401700001040500040102050603000000000000000000005C
:14018400000000000000000000000000000000008C42000099
:14019800F04100005C42000034420000204200004842020020
:1401AC00010004000300060005000600030002000500040018
:1401C000010004000500060001000200030000020306010405
:1401D4000500040102050603000006000500040003000200E9
:1401E8000100000006000500040003000200010000020306E2
:1401FC00010405000401020506030000803FCDCCCC3D00006F
:1402100000000000000000000001000FCFEFD1E2CDBFDEBF30
:14022400C051D0400AEA08830024EEE0F2E012E0E935F1075A
:1402380011F00192FBCF0083EEE0F2E0A0E0B2E012E000E04D
:14024C000BBFEC31F10721F0C89531960D92F9CF0E9431014F
:14026000FFCF229744E650E00E9466110E94FC120E94C2116B
:140274000E94F91400E911E00E94C91400E911E00E94C91415
:1402880000E911E00E94C91400E911E00E94C9148AE780932C
:14029C00180281E090E09093170280931602909315028093AF
:1402B000140208E611E00E940D1E10930F0200930E0230935E
:1402C400110220931002D7C04091180255274130E0E05E07BA
:1402D8000CF4CFC088E190E0841795070CF4C9C003E010E017
:1402EC009A010E94211EF80181EE90E0E80FF91F279037901D
:1403000006900CBEF101199421E0009116020E944002B3C0E9
:1403140021E0009116020E943203ADC021E0009116020E949B
:140328000209A7C021E0009116020E94110AA1C021E030E076
:14033C00009116020E942D0B9AC021E030E0009116020E9474
:14035000640C93C026E030E000911602109117020F5F1F4F81
:140364000E94D91DC8010196909313028093120226E030E018
:140378008C010F5F1F4F0E94D91DC8010196909313028093C5
:14038C0012021C0187E090E0821993099093130280931202BF
:1403A00081E090E09983888320911202009116020E949504A8
:1403B40062C021E0009114020E94AB055CC021E00091140255
:1403C8000E94BE0656C021E0009114020E94E70750C080914C
:1403DC001402909115028130E0E09E0719F40E94991345C049
:1403F0000E94B81342C026E030E000911602109117020F5FA3
:140404001F4F0E94D91DC8010196909313028093120226E019
:1404180030E08C010F5F1F4F0E94D91DC80101969093130227
:14042C00809312021C0187E090E0821993099093130280931F
:1404400012028AE090E09983888320911202009116020E9483
:14045400F71611C021E008E110E00E9471180BC086E090E010
:140468009983888325E004E00E94C61702C00E947B1928CF02
:14047C00229608950E94B61D0E94451E259716E00F850F5FE9
:140490000E94F51D802F8F5F898316E0082F0F5F0E94F51DAC
:1404A400802F8F5F8A83282E87E082198B83298087E0821989
:1404B8008C8387E0A82E0F84A01846E482E3C82E68E286E95B
:1404CC0090E07C0112E0002D0E94F51D002309F0B5C09E012C
:1404E0002C5F3F4F8E010D5F1F4F0E9429169E012E5F3F4FEB
:1404F4008E010F5F1F4F0E942916A4C0688322E40B810E9425
:140508001C15688322E40C810E941C15688322E40A2D0E9493
:14051C001C1587010E94C9148AE5888323E40F850E941C15AB
:140530008AE5888321E409810E941C158AE5888321E40A81D1
:140544000E941C158AE58C19888321E40B810E941C158C2D94
:14055800865A888321E40C810E941C158AE5841B888323E41F
:14056C000A2D0E941C1587010E94C9148AE5888322E40B815E
:140580000E941C158AE5888322E40C810E941C158AE588833A
:1405940022E40A2D0E941C1508E210E00E94C914688322E4F9
:1405A8000F850E941C15688322E409810E941C15688322E499
:1405BC000A810E941C1587010E94C914842F865A888323E421
:1405D0000F850E941C158AE58C19888321E409810E941C152F
:1405E4008C2D865A888321E40A810E941C158AE5888321E47D
:1405F8000B810E941C158AE5888321E40C810E941C158AE542
:14060C00888323E40A2D0E941C1587010E94C9148AE588833D
:1406200022E40F850E941C158AE5888322E409810E941C157C
:140634008AE5888322E40A810E941C1508E210E00E94C9147B
:1406480029883324822D8150898B80E0821508F453CF259632
:14065C000E943A1E249608950E94B61D0E94451E269716E00C
:1406700008890F5F0E94F51D802F8F5F898316E0082F0F5F7F
:140684000E94F51D802F8F5F8A83282E87E082198B832980F5
:1406980087E082198C8387E0088880198D834CE38CE3E82EE9
:1406AC0068E280E991E06C015C0112E008890E94F51D0023F2
:1406C00009F025C19E012C5F3F4F8E010D5F1F4F0E94291645
:1406D4009E012E5F3F4F8E010F5F1F4F0E94291614C18AE5C8
:1406E800888323E408890E941C158AE5888323E409810E94DB
:1406FC001C158AE5888323E40A810E941C158AE5888322E45A
:1407100008890E941C158AE5888322E409810E941C158AE525
:14072400888322E40A810E941C1585010E94C914688322E45C
:140738000B810E941C15688322E40C810E941C15688322E40C
:14074C000D810E941C152224288223E40B810E941C1522249C
:14076000288223E40C810E941C152224288223E40D810E944D
:140774001C1586010E94C9148AE5888321E408890E941C1557
:140788008AE5888321E409810E941C158AE5888321E40A8177
:14079C000E941C1586010E94C91484EB888323E40B810E94C1
:1407B0001C1584EB888323E40C810E941C1584EB888323E4A2
:1407C4000D810E941C158AE58E19888321E40B810E941C153B
:1407D8008E2D865A888321E40C810E941C15842F865A888364
:1407EC0021E40D810E941C1586010E94C9148AE5888323E40C
:140800000B810E941C158AE5888323E40C810E941C158AE535
:14081400888323E40D810E941C158AE5888322E40B810E94AF
:140828001C158AE5888322E40C810E941C158AE5888322E42B
:14083C000D810E941C1585010E94C914688322E408890E941E
:140850001C15688322E409810E941C15688322E40A810E94F7
:140864001C152224288223E408890E941C152224288223E4FD
:1408780009810E941C152224288223E40A810E941C15860133
:14088C000E94C91484EB888323E408890E941C1584EB88837A
:1408A00023E409810E941C1584EB888323E40A810E941C1501
:1408B400842F865A888321E408890E941C158AE58E19888308
:1408C80021E409810E941C158E2D865A888321E40A810E94E2
:1408DC001C1586010E94C9148AE5888321E40B810E941C15F3
:1408F0008AE5888321E40C810E941C158AE5888321E40D8108
:140904000E941C1586010E94C9142A883324822D81508A8B68
:1409180080E0821508F4E3CE26960E943A1E249608950E9478
:14092C00B61D0E94451E63978CE691E0FE01319607E010E065
:14094000FA93EA939A938A930E948D1E83E791E0FE0138965A
:1409540007E010E0FA93EA939A938A930E948D1ECE010196B1
:14096800EF8DFF27E80FF91F20802F86CE010896ED8DFF2768
:14097C00E80FF91F2080288ACE010896E22DFF27E80FF91F55
:140990002080298ACE010196EF85FF27E80FF91F20802A8A9D
:1409A40006EA11E00E940D1E8EE092E09A938A930E9428207D
:1409B8000E94241F402F02EA11E00E940D1E8EE092E09A9320
:1409CC008A930E9428200E94241FC02E68E288EC90E07C0192
:1409E0005C01A8C08AE5888322E409890E941C158AE58883DF
:1409F40022E40A890E941C15688322E40D8D0E941C1568833A
:140A080022E40F8D0E941C1587010E94C9148AE5841B888345
:140A1C0021E409890E941C15842F865A888321E40A890E9484
:140A30001C15842F865A888321E40D8D0E941C158AE5841B63
:140A4400888321E40F8D0E941C1587010E94C9148AE588839E
:140A580022E40D8D0E941C158AE5888322E40F8D0E941C1528
:140A6C00688322E40F850E941C15688322E408890E941C15C9
:140A800087010E94C9148AE5841B888321E40D8D0E941C15D0
:140A9400842F865A888321E40F8D0E941C158AE58C1988831D
:140AA80021E40F850E941C158C2D865A888321E408890E94F2
:140ABC001C1585010E94C9148AE5888322E40F850E941C1509
:140AD0008AE5888322E408890E941C15688322E409890E9409
:140AE4001C15688322E40A890E941C1587010E94C9148C2DB6
:140AF800865A888321E40F850E941C158AE58C19888321E46F
:140B0C0008890E941C15842F865A888321E409890E941C1569
:140B20008AE5841B888321E40A890E941C1585010E94C91438
:140B340049A05AA0C20101979AA389A32224332424143504F8
:140B48000CF44CCF63960E943A1E249608953A932A930E9408
:140B5C00451E602F2697002403940D8216E0002D0F5F0E9459
:140B7000F51D802F8F5F898316E0082F0F5F0E94F51D802FB8
:140B84008F5F8A83282E87E082198B83298087E082198C8342
:140B980087E0C82E0D80C01842E350E002EA11E00E940D1E88
:140BAC008EE092E09A938A930E9428200E94241FA02E86E9FF
:140BC00090E07C01262E3324220C331C21E030E02219330984
:140BD4008A010E94211EA80112E00D810E94F51D002309F0A8
:140BE800BBC09E012C5F3F4F8E010D5F1F4F0E9429169E01DD
:140BFC002E5F3F4F8E010F5F1F4F0E942916AAC0A88222E4E4
:140C10000B810E941C15A88222E40C810E941C15A88222E4B1
:140C24000C2D0E941C1587010E94C9148AE5888321E40D819C
:140C38000E941C158AE5888321E409810E941C158AE588837F
:140C4C0021E40A810E941C15CA01865A9F4F888321E40B81FC
:140C60000E941C15CA01865A9F4F888321E40C810E941C15A4
:140C7400CA01865A9F4F888321E40C2D0E941C1587010E948D
:140C8800C9148AE5888322E40B810E941C158AE5888322E41C
:140C9C000C810E941C158AE5888322E40C2D0E941C1508E26E
:140CB00010E00E94C914A88222E40D810E941C15A88222E400
:140CC40009810E941C15A88222E40A810E941C1587010E9407
:140CD800C914CA01865A9F4F888321E40D810E941C15CA0156
:140CEC00865A9F4F888321E409810E941C15CA01865A9F4F20
:140D0000888321E40A810E941C158AE5888321E40B810E94C4
:140D14001C158AE5888321E40C810E941C158AE5888321E43C
:140D28000C2D0E941C1587010E94C9148AE5888322E40D8196
:140D3C000E941C158AE5888322E409810E941C158AE5888379
:140D500022E40A810E941C1508E210E00E94C91428883324CB
:140D6400822D8150888B80E0821508F44DCF26960E943A1E23
:140D7800229608953A932A930E94451E602F2697002403947C
:140D8C000D8216E0002D0F5F0E94F51D802F8F5F898316E0E0
:140DA000082F0F5F0E94F51D802F8F5F8A83282E87E08219E4
:140DB4008B83298087E082198C8387E0C82E0D80C0180EE9AA
:140DC80011E00E940D1E8EE092E09A938A930E9428200E94A3
:140DDC00241F88E2A82E86E990E07C01262E3324220C331CFC
:140DF00021E030E0221933090E94211EA80112E00D810E94BB
:140E0400F51D002309F0D3C09E012C5F3F4F8E010D5F1F4FF8
:140E18000E9429169E012E5F3F4F8E010F5F1F4F0E942916DF
:140E2C00C2C0A88222E40B810E941C15A88222E40C810E9442
:140E40001C15A88222E40C2D0E941C1587010E94C9148AE5BB
:140E540090E01C01241A350A288221E40D810E941C158AE501
:140E680090E01C01241A350A288221E409810E941C158AE5F1
:140E7C0090E01C01241A350A288221E40A810E941C15CA0180
:140E9000865A9F4F888321E40B810E941C15CA01865A9F4F78
:140EA400888321E40C810E941C15CA01865A9F4F888321E421
:140EB8000C2D0E941C1587010E94C9148AE5888322E40B8107
:140ECC000E941C158AE5888322E40C810E941C158AE58883E5
:140EE00022E40C2D0E941C1508E210E00E94C914A88222E463
:140EF4000D810E941C15A88222E409810E941C15A88222E4CC
:140F08000A810E941C1587010E94C914CA01865A9F4F8883CC
:140F1C0021E40D810E941C15CA01865A9F4F888321E4098128
:140F30000E941C15CA01865A9F4F888321E40A810E941C15D3
:140F44008AE590E01C01241A350A288221E40B810E941C1512
:140F58008AE590E01C01241A350A288221E40C810E941C15FD
:140F6C008AE590E01C01241A350A288221E40C2D0E941C153D
:140F800087010E94C9148AE5888322E40D810E941C158AE506
:140F9400888322E409810E941C158AE5888322E40A810E942E
:140FA8001C1508E210E00E94C91428883324822D8150888B11
:140FBC0080E0821508F435CF26960E943A1E229608953A9352
:140FD0002A930E94451E602F2697002403940D8216E0002D92
:140FE4000F5F0E94F51D802F8F5F898316E0082F0F5F0E94F1
:140FF800F51D802F8F5F8A83282E87E082198B83298087E0B3
:14100C0082198C8387E0E82E0D80E01806EA11E00E940D1E76
:141020008EE092E09A938A930E9428200E94241F88E2A82E83
:1410340086E990E06C01262E3324220C331C21E030E02219E8
:1410480033090E94211EA80112E00D810E94F51D002309F07E
:14105C00C5C09E012C5F3F4F8E010D5F1F4F0E9429169E015A
:141070002E5F3F4F8E010F5F1F4F0E942916B4C0A88222E461
:141084000D810E941C15A88222E40E2D0E941C1586010E9490
:14109800C9148AE5888321E40B810E941C158AE5888321E40A
:1410AC000A810E941C15CA01865A9F4F888321E40D810E94F9
:1410C0001C15CA01865A9F4F888321E40E2D0E941C158601AD
:1410D4000E94C9148AE5888322E40D810E941C158AE588832E
:1410E80022E40E2D0E941C1508E210E00E94C914A88222E457
:1410FC0009810E941C15A88222E40C810E941C1586010E94CA
:14111000C914CA01865A9F4F888321E409810E941C15CA011D
:14112400865A9F4F888321E40C810E941C158AE5888321E4FA
:141138000D810E941C158AE5888321E40E2D0E941C1586012E
:14114C000E94C9148AE5888322E409810E941C158AE58883B9
:1411600022E40C810E941C1508E210E00E94C914A88222E48C
:141174000B810E941C15A88222E40A810E941C1586010E9451
:14118800C914CA01865A9F4F888321E40B810E941C15CA01A3
:14119C00865A9F4F888321E40A810E941C158AE5888321E484
:1411B00009810E941C158AE5888321E40C810E941C15860168
:1411C4000E94C9148AE5888322E40B810E941C158AE588833F
:1411D80022E40A810E941C1508E210E00E94C914288833243F
:1411EC00822D8150888B80E0821508F443CF26960E943A1EA1
:14120000229608950E94B61D0E94451E259716E00F850F5F57
:141214000E94F51D802F8F5F898316E0082F0F5F0E94F51D1A
:14122800802F8F5F8A83282E87E082198B83298087E08219F7
:14123C008C8387E0C82E0F84C01806EA11E00E940D1E8EE0AB
:1412500092E09A938A930E9428200E94241FE02E0AE911E00D
:141264000E940D1E8EE092E09A938A930E9428200E94241FB0
:14127800402F88E2A82E66E970E012E00F850E94F51D0023B7
:14128C0009F0BBC09E012C5F3F4F8E010D5F1F4F0E942916D8
:1412A0009E012E5F3F4F8E010F5F1F4F0E942916AAC0A882A0
:1412B40022E40B810E941C15A88222E40C810E941C15A88207
:1412C80022E40C2D0E941C158B010E94C9148AE58E198883D4
:1412DC0023E40F850E941C15842F865A888321E409810E94C1
:1412F0001C158AE5841B888321E40A810E941C158AE5841B2F
:14130400888321E40B810E941C15842F865A888321E40C8136
:141318000E941C158AE58E19888323E40C2D0E941C158B012E
:14132C000E94C9148AE5888322E40B810E941C158AE58883D5
:1413400022E40C810E941C158AE5888322E40C2D0E941C15A7
:1413540008E210E00E94C914A88222E40F850E941C15A8826B
:1413680022E409810E941C15A88222E40A810E941C158B01F4
:14137C000E94C9148E2D865A888323E40F850E941C158AE55B
:14139000841B888321E409810E941C15842F865A888321E49A
:1413A4000A810E941C15842F865A888321E40B810E941C15D5
:1413B8008AE5841B888321E40C810E941C158E2D865A8883FD
:1413CC0023E40C2D0E941C158B010E94C9148AE5888322E46F
:1413E0000F850E941C158AE5888322E409810E941C158AE546
:1413F400888322E40A810E941C1508E210E00E94C91429886C
:141408003324822D8150898B80E0821508F44DCF25960E9479
:14141C003A1E249608950E94B61D0E94451E269716E008894F
:141430000F5F0E94F51D802F8F5F898316E0082F0F5F0E94A0
:14144400F51D802F8F5F8A83282E87E082198B83298087E062
:1414580082198C8387E0088880198D8306E911E00E940D1E89
:14146C008EE092E09A938A930E9428200E94241FC02E02E99A
:1414800011E00E940D1E8EE092E09A938A930E9428200E94E4
:14149400241FE02E02EA11E00E940D1E8EE092E09A938A931F
:1414A8000E9428200E94241F402F68E286E990E05C0112E07A
:1414BC0008890E94F51D002309F0BBC09E012C5F3F4F8E01F9
:1414D0000D5F1F4F0E9429169E012E5F3F4F8E010F5F1F4F28
:1414E4000E942916AAC0688322E40B810E941C15688322E468
:1414F8000C810E941C15688322E40D810E941C1585010E9406
:14150C00C9148AE58E19888321E408890E941C15842F865AD1
:14152000888321E409810E941C158AE58C19888321E40A819B
:141534000E941C158AE58C19888321E40B810E941C15842F9A
:14154800865A888321E40C810E941C158AE58E19888321E419
:14155C000D810E941C1585010E94C9148AE5888322E40B8109
:141570000E941C158AE5888322E40C810E941C158AE588833A
:1415840022E40D810E941C1508E210E00E94C914688322E4A2
:1415980008890E941C15688322E409810E941C15688322E49C
:1415AC000A810E941C1585010E94C9148C2D865A888321E41F
:1415C00008890E941C158AE5841B888321E409810E941C1538
:1415D4008E2D865A888321E40A810E941C158E2D865A888354
:1415E80021E40B810E941C158AE5841B888321E40C810E943E
:1415FC001C158C2D865A888321E40D810E941C1585010E9478
:14161000C9148AE5888322E408890E941C158AE5888322E485
:1416240009810E941C158AE5888322E40A810E941C1508E28D
:1416380010E00E94C9142A883324822D81508A8B80E082159A
:14164C0008F44DCF26960E943A1E249608950E94B61D0E944E
:14166000451EA49716E00EA50F5F0E94F51D802F8F5F8AA343
:1416740016E0082F0F5F0E94F51D802F8F5F8BA387E0C82EEB
:141688000BA0C018E82E0AA0E018A82E0EA4A01846E462E364
:14169C0088E289A384E690E098A38F8F8AE791E0FE013196C9
:1416B0000CE010E0FA93EA939A938A930E948D1E0EA40D8664
:1416C400CE860AA00F86E88A0BA0098AAA8A842F9927809513
:1416D80090958F5F9F4F9C8B8B8B862F9927809590958F5F23
:1416EC009F4F9E8B8D8B842F9927809590958F5F9F4F988F0B
:141700008F8B242E33243A8E298E262E33243C8E2B8E242E13
:1417140033243E8E2D8EC5C0662777278AE5888322E4CE01E4
:141728000D96FB01E80FF91F00810E941C1509A0088222E472
:14173C0086E090E08B010F5F1F4F2F933F939C010E94BB1DB0
:14175000F8013F912F91CE010D96E80FF91F00810E941C1527
:141764000F8D18A10E94C91426E030E08B010F5F1F4F0E947D
:14177800BB1D1801220C331CCE014396F101E80FF91F808145
:14178C009181865A9F4FFE013196D101AE0FBF1F8D939C93E7
:1417A00026E030E08B010F5F1F4F0E94BB1DCE010196F801DE
:1417B400EE0FFF1FE80FF91F20803180288221E4CE010D9685
:1417C800F801E80FF91F00810E941C1581E090E07C018B01D7
:1417DC000F5F1F4F0E0D1F1D26E030E00E94BB1D5801A50137
:1417F000440F551FCE0101966A01C80ED91ECE014396FA01DD
:14180400E80FF91F00811181000F111F25E030E00E94BF1DDC
:14181800F60120803180201A310A31822082CE010196F5014E
:14182C00EE0FFF1FE80FF91F20803180288221E4CE010D960C
:14184000F501E80FF91F00810E941C15C70101967C0185E0FA
:1418540090E08E159F050CF0BECF0F8D18A10E94C9146F5F9E
:141868007F4F6630E0E07E070CF456CF8AE5888322E486E0B8
:14187C0090E02F933F939C018B010E94BB1DF8013F912F9128
:14189000CE010D96E80FF91F00810E941C150F8D18A10E9478
:1418A400C91468A979A9CB01019799AB88AB2224332426166C
:1418B80037060CF42FCFA4960E943A1E249608950E94B61DE1
:1418CC000E94451EA69716E008A90F5F0E94F51D802F8F5F60
:1418E0008CA316E0082F0F5F0E94F51D802F8F5F8DA387E042
:1418F400C82E0DA0C018E82E0CA0E018A82E08A8A01842E348
:1419080068E288E289A384E690E098A38F8F9BA38AA386E8DF
:14191C0091E0FE0131960CE010E0FA93EA939A938A930E94AE
:141930008D1E08A80D86CE860CA00F86E88A0DA0098AAA8A3A
:14194400842F9927809590958F5F9F4F9C8B8B8B862F992754
:14195800809590958F5F9F4F9E8B8D8B842F99278095909577
:14196C008F5F9F4F988F8F8B242E33243A8E298E262E332477
:141980003C8E2B8E242E33243E8E2D8E7EC1CC24DD248AE501
:14199400888322E4CE010D96F601E80FF91F00810E941C1562
:1419A80009A0088222E483E090E086010F5F1F4F2F933F9328
:1419BC009C010E94BB1DF8013F912F91CE010D96E80FF91FF6
:1419D00000810E941C150F8D18A10E94C9148AE5888322E45B
:1419E40083E090E086010E5F1F4F2F933F939C010E94BB1D0F
:1419F800F8013F912F91CE014096E80FF91F00810E941C154A
:141A0C0009A0088222E483E090E02F933F939C0186010E9460
:141A2000BB1DF8013F912F91CE014096E80FF91F00810E947A
:141A34001C150AA11BA10E94C91423E030E086010F5F1F4F11
:141A48000E94BB1D1801220C331CCE014396F101E80FF91FD1
:141A5C0080819181865A9F4FFE013196D101AE0FBF1F8D9342
:141A70009C9323E030E086010F5F1F4F0E94BB1DCE010196DD
:141A8400F801EE0FFF1FE80FF91F20803180288221E4CE015C
:141A98000D96F801E80FF91F00810E941C1581E090E07C01ED
:141AAC0086010F5F1F4F0E0D1F1D23E030E00E94BB1DB80126
:141AC000AB01440F551FCE0101965A01A80EB91ECE014396A9
:141AD400FA01E80FF91F20803180F501408051804218530867
:141AE80051824082CE010196FB01EE0FFF1FE80FF91F208029
:141AFC003180288221E4CE010D96FB01E80FF91F00810E94D6
:141B10001C15C70101967C0182E090E08E159F050CF0C4CF0C
:141B24000F8D18A10E94C91423E030E086010E94BB1DC801FC
:141B380003965C01AA0CBB1CCE014396F501E80FF91F808168
:141B4C009181865A9F4FFE013196D501AE0FBF1F8D939C931F
:141B600023E030E086010E94BB1DA801CE010196FA0133968A
:141B7400EE0FFF1FE80FF91F20803180288221E4CE0140968E
:141B8800FA01E80FF91F00810E941C1581E090E07C01860116
:141B9C000E0D1F1D23E030E00E94BB1DB8016D5F7F4F5B01A2
:141BB000AA0CBB1CCE010196A501480F591FCE014396F5011B
:141BC400E80FF91F20803180FA014080518042185308518299
:141BD8004082CE010196FB01EE0FFF1FE80FF91F208031805A
:141BEC00288221E4CE010D96FB01E80FF91F00810E941C1565
:141C0000C70101967C0182E090E08E159F050CF0C4CF0AA1A1
:141C14001BA10E94C914C60101966C018330E0E09E070CF49E
:141C2800B4CE8AE5888322E483E090E086010F5F1F4F2F93AE
:141C3C003F939C010E94BB1DF8013F912F91CE010D96E80FB9
:141C5000F91F00810E941C158AE5888322E483E090E02F93FF
:141C64003F939C0186010E94BB1DF8013F912F91CE014096CE
:141C7800E80FF91F00810E941C150F8D18A10E94C914CAA8AF
:141C8C00DBA8C60101979BAB8AAB222433242C143D040CF4C9
:141CA00076CEA6960E943A1E24960895222422B88FEF81B987
:141CB40025B881E084B928B88FEF87B92BB880EF8AB92EB888
:141CC8002DB821BA20BA24BA83E083BB2092020180E78093C0
:141CDC000101209205018EEF80930401209208012092070130
:141CF00020920B0187EC80930A01089522242092810084E90E
:141D04008093850081E0809384008BE6809389008FEF80939D
:141D180088008BE680938B008FEF80938A0020928D00209214
:141D2C008C008BE6809387008FEF8093860020928000209211
:141D4000820081E0809381000895809102018B7F8093020147
:141D540008958091020184608093020108958BB18F7D8BB9A7
:141D680008955D9A089580910B018B7F80930B010895809142
:141D7C000B01846080930B01089584B38D7F84BB0895A19A4D
:141D9000089580910B018F7B80930B01089580910B018064BE
:141DA40080930B0108958BB18F7E8BB908955C9A08958091A1
:141DB8000B018F7780930B01089580910B01806880930B0125
:141DCC000895809102018F7B8093020108958091020180649D
:141DE000809302010895809102018F7E809302010895809157
:141DF40002018061809302010895809102018F7D809302010E
:141E08000895809102018062809302010895809105018F7763
:141E1C0080930501089580910501806880930501089584B310
:141E30008E7F84BB0895A09A08958BB18F778BB908955F9AC2
:141E440008958BB18F7B8BB908955E9A0895809105018F7D0E
:141E5800809305010895809105018062809305010895809100
:141E6C0005018F7B8093050108958091050180648093050188
:141E80000895809105018F7E809305010895809105018061DF
:141E940080930501089580910501877F8093050108958091A0
:141EA80005018860809305010895809105018D7F8093050146
:141EBC000895809105018260809305010895809105018B7FA5
:141ED0008093050108958091050184608093050108950A92FB
:141EE4001A922A923A924A925A926A927A928A929A920A9301
:141EF8001A932A933A938A939A93AA93BA93EA93FA930FB6FC
:141F0C000A9220900002222009F425DF80910002813009F46F
:141F200038DF80910002823009F451DF80910002833009F4E1
:141F34007CDF80910002843009F489DF80910002853009F44D
:141F4800A8DF09900FBEF991E991B991A99199918991399102
:141F5C002991199109919990899079906990599049903990A4
:141F700029901990099018950A921A922A923A924A925A921D
:141F84006A927A928A929A920A931A932A933A938A939A93DB
:141F9800AA93BA93EA93FA930FB60A9220900002222009F44F
:141FAC00E0DE80910002813009F4F9DE80910002823009F409
:141FC00012DF80910002833009F437DF80910002843009F47F
:141FD4004ADF80910002853009F469DF09900FBEF991E99159
:141FE800B991A9919991899139912991199109919990899013
:141FFC007990699059904990399029901990099018950A9200
:142010001A922A923A924A925A926A927A928A929A920A93D3
:142024001A932A933A938A939A93AA93BA93EA93FA930FB6CE
:142038000A9220900002222009F4A1DE80910002813009F4C7
:14204C00B4DE80910002823009F4D3DE80910002833009F4B8
:14206000F2DE80910002843009F40BDF80910002853009F429
:142074002ADF09900FBEF991E991B991A99199918991399153
:14208800299119910991999089907990699059904990399077
:14209C0029901990099018950A921A922A923A924A925A92F0
:1420B0006A927A928A929A920A931A932A933A938A939A93AE
:1420C400AA93BA93EA93FA930FB60A9284E98093850081E0AD
:1420D80080938400809104029091050201969093050280934A
:1420EC000402809100028F5F8093000287E020900002821514
:1421000018F4222420920002209000022220D9F42CDE33DEE9
:142114003CDE2090450220928900209044022092880020908B
:14212800430220928B002090420220928A002090410220924C
:14213C008D002090400220928C00809100028130D9F427DE3C
:1421500030DE37DE20903F022092890020903E022092880002
:1421640020903D0220928B0020903C0220928A0020903B0224
:1421780020928D0020903A0220928C00809100028230D9F458
:14218C0026DE31DE3CDE209039022092890020903802209250
:1421A00088002090370220928B002090360220928A002090A9
:1421B400350220928D002090340220928C00809100028330B7
:1421C800D9F435DE3ADE3FDE209033022092890020903202EA
:1421DC00209288002090310220928B002090300220928A0077
:1421F00020902F0220928D0020902E0220928C00809100028A
:142204008430D9F42ADE35DE40DE20902D0220928900209042
:142218002C022092880020902B0220928B0020902A022092A2
:14222C008A002090290220928D002090280220928C008091D1
:1422400000028530D9F42FDE3ADE45DE2090270220928900AA
:1422540020902602209288002090250220928B00209024027A
:1422680020928A002090230220928D002090220220928C0000
:14227C0009900FBEF991E991B991A991999189913991299198
:1422900019910991999089907990699059904990399029906E
:1422A40019900990189522242092C1002092C00086E0809393
:1422B800C20087E48093C4002092C50088E98093C1000895B5
:1422CC00F89422242092740020927500E9DC10DDE6DF222422
:1422E00025BE2092690020926A002092680020926B002092E7
:1422F4006C0020926D002DBA20926E008FE080936F002092A1
:142308007000209271002092720020927300789408950A92A0
:14231C001A922A923A924A925A926A927A928A929A920A93C4
:142330001A932A933A938A939A93AA93BA93EA93FA930FB6BF
:142344000A922090C600209219022092C6000E94111C0990C6
:142358000FBEF991E991B991A99199918991399129911991AA
:14236C00099199908990799069905990499039902990199092
:1423800009901895289A089585B18E7F85B9089580910B0169
:142394008D7F80930B01089580910B01826080930B010895B2
:1423A800222733270027112784EB20900302821510F480934D
:1423BC0003022090030280E4829D9001275C30442093020291
:1423D0008901012F1127009301020895AA92A02EA092030293
:1423E400E1DF20900102209245022090020220924402A99094
:1423F8000895AA92A02EA0920302D2DF209001022092430298
:14240C002090020220924202A9900895AA92A02EA0920302FB
:14242000C3DF20900102209241022090020220924002A9907D
:142434000895AA92A02EA0920302B4DF2090010220923F027D
:142448002090020220923E02A9900895AA92A02EA0920302C3
:14245C00A5DF2090010220923D022090020220923C02A99067
:142470000895AA92A02EA092030296DF2090010220923B0263
:142484002090020220923A02A9900895AA92A02EA09203028B
:1424980087DF20900102209239022090020220923802A99051
:1424AC000895AA92A02EA092030278DF209001022092370249
:1424C0002090020220923602A9900895AA92A02EA092030253
:1424D40069DF20900102209235022090020220923402A9903B
:1424E8000895AA92A02EA09203025ADF20900102209233022F
:1424FC002090020220923202A9900895AA92A02EA09203021B
:142510004BDF20900102209231022090020220923002A99024
:142524000895AA92A02EA09203023CDF2090010220922F0214
:142538002090020220922E02A9900895AA92A02EA0920302E2
:14254C002DDF2090010220922D022090020220922C02A9900E
:142560000895AA92A02EA09203021EDF2090010220922B02FA
:142574002090020220922A02A9900895AA92A02EA0920302AA
:142588000FDF20900102209229022090020220922802A990F8
:14259C000895AA92A02EA092030200DF2090010220922702E0
:1425B0002090020220922602A9900895AA92A02EA092030272
:1425C400F1DE20900102209225022090020220922402A990E3
:1425D8000895AA92A02EA0920302E2DE2090010220922302C7
:1425EC002090020220922202A99008950AE5F0DE0AE5FDDEF4
:142600000AE50ADF0AE517DF0AE524DF0AE531DF0AE53EDF0C
:142614000AE54BDF0AE558DF0AE565DF0AE572DF0AE57FDFB3
:142628000AE58CDF0AE599DF0AE5A6DF0AE5B3DF0AE5C0DF5A
:14263C000AE5CDDF08950AE5F8DE0AE550DF0AE5A8DF08955C
:1426500001E4F1DE01E449DF01E4A1DF089503E7EADE03E717
:1426640042DF03E79ADF08950AE5F2DE0AE5FFDE0AE548DFA0
:142678000AE555DF0AE59EDF0AE5ABDF08950DE2E5DE0AE508
:14268C00F2DE07E83BDF0AE548DF07E891DF0AE59EDF0895E3
:1426A00007E8D8DE07E8E5DE0DE22EDF0DE23BDF0DE284DF78
:1426B4000DE291DF08950AE58FDE0AE5E7DE0AE53FDF08955C
:1426C80001E488DE01E4E0DE01E438DF089503E781DE03E744
:1426DC00D9DE03E731DF08950AE589DE0AE596DE0AE5DFDE37
:1426F0000AE5ECDE0AE535DF0AE542DF08950DE27CDE0AE535
:1427040089DE0DE2D2DE0AE5DFDE07E828DF0AE535DF089579
:1427180007E86FDE07E87CDE07E8C5DE07E8D2DE0DE21BDF0E
:14272C000DE228DF089581E0809309025FDF04E610E029D175
:1427400087DFA1DF04E610E024D190DF04E610E020D1BADFFD
:14275400D4DF04E610E01BD1C3DF04E610E017D16EDFA9DFBF
:14276800222420920902089581E08093090240DF04E610E045
:14277C000AD16FDF82DF04E610E005D171DF04E610E001D113
:14279000A2DFB5DF04E610E0FCD0A4DF04E610E0F8D04FDF27
:1427A4008ADF222420920902089581E08093090221DF04E6AF
:1427B80010E0EBD00DE24ADE0DE257DE07E8A0DE07E8ADDE40
:1427CC0004E610E0E0D00DE230DE07E888DE04E610E0D9D09A
:1427E0000AE538DE0AE545DE0AE58EDE0AE59BDE04E610E031
:1427F400CED00DE200DE0DE20DDE07E8DDDE07E8EADE04E641
:1428080010E0C3D00DE2E6DD07E8C5DE04E610E0BCD00AE5A0
:14281C00EEDD0AE5FBDD0AE5CBDE0AE5D8DE04E610E0B1D07E
:142830000DE23DDE0DE24ADE07E893DE07E8A0DE04E610E0CC
:14284400A6D00DE223DE07E87BDE04E610E09FD00AE52BDE91
:142858000AE538DE0AE581DE0AE58EDE04E610E094D0C6DEDC
:14286C00222420920902089581E080930902BEDE04E610E0C3
:1428800088D00DE2E7DD0DE2F4DD07E83DDE07E84ADE04E66E
:1428940010E07DD007E8CDDD0DE225DE04E610E076D00AE559
:1428A800D5DD0AE5E2DD0AE52BDE0AE538DE04E610E06BD0AA
:1428BC000DE29DDD0DE2AADD07E87ADE07E887DE04E610E0B4
:1428D00060D007E883DD0DE262DE04E610E059D00AE58BDDEC
:1428E4000AE598DD0AE568DE0AE575DE04E610E04ED00DE21E
:1428F800DADD0DE2E7DD07E830DE07E83DDE04E610E043D06E
:14290C0007E8C0DD0DE218DE04E610E03CD00AE5C8DD0AE5DD
:14292000D5DD0AE51EDE0AE52BDE04E610E031D063DE2224AC
:1429340020920902089581E08093090201E05BDD0EE668DD64
:1429480001E084DD0EE691DD01E0ADDD0EE6BADD03EBD6DD40
:14295C0006E4E3DD03EBFFDD06E40CDE03EB28DE06E435DE2E
:1429700000E911E00ED000E911E00BD03DDE222420920902C8
:142984000895439A089588B1877F88B90895222433243092AC
:14299800050220920402209004023090050220163106C8F3C7
:1429AC000895AA9287E0801718F488E080937B000770802F18
:1429C000806280937C0080917A00806480937A0020907A006C
:1429D40024FEFCCFA090790080917A00806180937A0022241A
:1429E80020927B000A2DA99008950E945A1E44275527662713
:1429FC00772703E010E09A010E94211E180187E492E0280EAE
:142A1000391EFB01E20DF31D8AE580836F5F7F4F6330E0E0FF
:142A24007E075CF34F5F5F4F4630E0E05E071CF30C945F1EA7
:142A38000E94721E422FC02E2197A984A882242F0C2D0ED17F
:142A4C006C2D77276130E0E07E07C9F06230E0E07E0741F1A7
:142A60006330E0E07E0709F436C06430E0E07E0709F444C0BD
:142A74006530E0E07E0709F45AC06630E0E07E0709F46FC056
:142A880087C0413421F40A2D0E94EE1181C0423421F40A2D8E
:142A9C000E94FD117BC0433409F078C00A2D0E940C1274C068
:142AB000413421F40A2D0E941B126EC0423421F40A2D0E94F0
:142AC4002A1268C0433409F065C00A2D0E94391261C041344B
:142AD80021F40A2D0E9448125BC0423421F40A2D0E945712BA
:142AEC0055C0433409F052C00A2D0E9466124EC0413421F456
:142B00000A2D0E94751248C0423441F42A2C332404EB0219F7
:142B140013090E9484123EC0433409F03BC02A2C332404EB54
:142B2800021913090E94931233C0413421F40A2D0E94A21211
:142B3C002DC0423441F42A2C332404EB021913090E94B112B5
:142B500023C0433409F52A2C332404EB021913090E94C012D2
:142B640019C0413421F40A2D0E94CF1213C0423441F42A2C6C
:142B7800332404EB021913090E94DE1209C0433439F42A2C77
:142B8C00332404EB021913090E94ED1221960C947B1EAA92EB
:142BA000A02E0A2D0E94EE110A2D0E941B120A2D0E94481242
:142BB4000A2D0E9475120A2D0E94A2120A2D0E94CF12A9902D
:142BC8000895AA92A02E0A2D0E94FD110A2D0E942A120A2D1F
:142BDC000E9457122A2C332404EB021913090E9484122A2C79
:142BF000332404EB021913090E94B1122A2C332404EB021938
:142C040013090E94DE12A9900895AA92A02E0A2D0E940C1237
:142C18000A2D0E9439120A2D0E9466122A2C332404EB02197C
:142C2C0013090E9493122A2C332404EB021913090E94C012EA
:142C40002A2C332404EB021913090E94ED12A9900895AA92FA
:142C5400F801A080F9012080F8012082F901A082A99008952C
:142C680083E0809F100187E492E0280E391EE22FFF27E154EF
:142C7C00F040E20DF31D08800082089583E0809F100187E470
:142C900092E0280E391EE22FFF27E154F040E20DF31D008115
:142CA400089520900B0230900C02222011F4332049F00E947F
:142CB800C3142224332430920C0220920B0208C00E94C514C2
:142CCC0081E090E090930C0280930B0208950E94451EC22E40
:142CE000A02E21976B852C2D0A2DCEDF862F800F803040F009
:142CF4002C2D0A2DC7DF262E200E80EF821510F4442711C0CE
:142D08002C2D0A2DBDDFE02E262E200E84EB821510F444EBC2
:142D1C0006C02C2D0A2DB2DFE02E462F400F48832C2D0A2D8F
:142D300083DE21960C943A1E00930A02089500910A02089509
:142D4400AA92A02EA4978AEA91E0FE0104E210E0FA93EA9372
:142D58009A938A930E948D1EEEDF8CE0809F1001CE01280E62
:142D6C00391EEA2DFF273197EE0FFF1FE20DF31D0081A49622
:142D8000A99008950E94471E422FE02E2197C9840E2DD8DFEC
:142D9400A02EC882242F0E2D4DDE413459F42C2C332484EB7A
:142DA80090E0821993098883242F0A2D41DE04C0C882242F5B
:142DBC000A2D3CDE21960C94311E0E94471EC22E402F2197EE
:142DD000E984042FB7DFA02EE8822C2D042F7DDFE8822C2DD6
:142DE4000A2D79DF21960C94311E0E94B61D0E94451E629733
:142DF8008EEC91E0FE01319607E010E0FA93EA939A938A93EB
:142E0C000E948D1E85ED91E0FE01389607E010E0FA93EA93D4
:142E20009A938A930E948D1ECE010196EE8DFF27E80FF91FF1
:142E340020802F86CE010896EC8DFF27E80FF91F2080288AC8
:142E4800CE010896E22DFF27E80FF91F2080298ACE0101960C
:142E5C00EF85FF27E80FF91FA08068E282E3E82E8CE3C82E6F
:142E700048EC50E0688322E40F850E941C15688322E4088910
:142E84000E941C158A010E94C9148AE58E19888321E40F85A3
:142E98000E941C158E2D865A888321E408890E941C1580EADA
:142EAC00888323E40F850E941C1580EA888323E408890E94EA
:142EC0001C158C2D865A888323E409890E941C158C2D865A24
:142ED400888323E40A2D0E941C158A010E94C91484EB88834A
:142EE80022E40F850E941C1584EB888322E408890E941C1585
:142EFC008A010E94C9142224288222E40C8D0E941C15222410
:142F1000288222E40E8D0E941C1586E9888321E40C8D0E94D5
:142F24001C158EE1888321E40E8D0E941C156627772720C070
:142F38008EE1888322E40C8D0E941C158EE1888322E40E8D7E
:142F4C000E941C158A010E94C9142224288222E40C8D0E9463
:142F60001C152224288222E40E8D0E941C158A010E94C914BE
:142F74006F5F7F4F08A019A060157105DCF262960E943A1EA1
:142F8800249608950E94B61D0E94451E2F97CD8CDE8C8CED62
:142F9C0091E0FE0131960EE010E0FA93EA939A938A930E9416
:142FB0008D1ECE010196E98DFF27EE0FFF1FE80FF91FE080D6
:142FC400CE010196EB8DFF27EE0FFF1FE80FF91F60814AE5BB
:142FD80088EC90E05C0172C0842F865A888322E4098D0E9496
:142FEC001C1584EB888323E4098D0E941C158AE5841B88839D
:1430000022E40E2D0E941C158AE5841B888323E40E2D0E94AB
:143014001C15842F865A888322E40B8D0E941C1584EB8883EE
:1430280023E40B8D0E941C158AE5841B888322E4062F0E942C
:14303C001C158AE5841B888323E4062F0E941C1585010E94FF
:14305000C914842F865A888322E40E2D0E941C1584EB888363
:1430640023E40E2D0E941C158AE5841B888322E4098D0E94EC
:143078001C158AE5841B888323E4098D0E941C15842F865AF7
:14308C00888322E4062F0E941C1584EB888323E4062F0E94BF
:1430A0001C158AE5841B888322E40B8D0E941C158AE5841B53
:1430B400888323E40B8D0E941C1585010E94C9142601C2019C
:1430C80001976C0122243324241435040CF484CF2F960E9427
:1430DC003A1E249608950E94B61D0E94451EA0978AEE91E097
:1430F000FE013F960EE010E0FA93EA939A938A930E948D1E79
:1431040088EF91E0FE01319607E010E0FA93EA939A938A93DE
:143118000E948D1E8FEF91E0FE01389607E010E0FA93EA93B9
:14312C009A938A930E948D1E002403940D8E82E08E8F83E0C0
:143140008F8F84E0C82ECE010F96ED8DFF27EE0FFF1FE80FDD
:14315400F91FE080CE010F96EE8DFF27EE0FFF1FE80FF91FB0
:1431680040816AE584E690E05C01B0C0862F865A888322E4F6
:14317C000D8D0E941C1584EB888323E40D8D0E941C158AE575
:14319000861B888322E40E2D0E941C158AE5861B888323E449
:1431A4000E2D0E941C15862F865A888322E40E8D0E941C15F5
:1431B80084EB888323E40E8D0E941C158AE5861B888322E4F3
:1431CC00042F0E941C158AE5861B888323E4042F0E941C15C1
:1431E0008AE5888322E40F8D0E941C158AE5888322E40C2D33
:1431F4000E941C158AE5888323E40F8D0E941C158AE588838A
:1432080023E40C2D0E941C1585010E94C9148CA5813009F0BF
:14321C002EC0CE010896ED8DFF27E80FF91F20802D8ECE016A
:143230000896EE8DFF27E80FF91F20802E8ECE010896EE2D58
:14324400FF27E80FF91FE080CE010896E42FFF27E80FF91F2C
:143258004081CE010896EF8DFF27E80FF91F20802F8ECE0157
:14326C000896EC2DFF27E80FF91FC0802DC0CE010196ED8D55
:14328000FF27E80FF91F20802D8ECE010196EE8DFF27E80FAC
:14329400F91F20802E8ECE010196EE2DFF27E80FF91FE0809C
:1432A800CE010196E42FFF27E80FF91F4081CE010196EF8DC1
:1432BC00FF27E80FF91F20802F8ECE010196EC2DFF27E80FD0
:1432D000F91FC0804AA45BA4C20101979BA78AA7222433243A
:1432E400241435040CF444CFA0960E943A1E249608950E9429
:1432F8005A1E219748EC50E060E971E000270E949C1684EBAA
:14330C00888322E430E001E010E00E94C21684EB888323E4C0
:1433200030E001E010E00E94C21684EB888322E430E004E0CA
:1433340010E00E94C21684EB888323E430E004E010E00E9414
:14334800C21684EB888322E430E005E010E00E94C21684EB4B
:14335C00888323E430E005E010E00E94C2168A010E94C914E2
:143370008AE5888322E430E004E010E00E94C2168A010E943E
:14338400C91484EB888321E404E00E941C1584E1888321E4AD
:1433980003E00E941C158B010E94C91484EB888322E430E0D0
:1433AC0004E010E00E94C2168A010E94C9148EE1888321E436
:1433C00030E001E010E00E94C2168A010E94C91422242882A4
:1433D40022E430E001E010E00E94C21684EB888323E430E0F3
:1433E80001E010E00E94C2168B010E94C91486E9888321E4FC
:1433FC0030E001E010E00E94C2168A010E94C9142224288268
:1434100021E430E004E010E00E94C21600E911E00E94C914EC
:1434240082E3888322E430E001E010E00E94C2168AE5888349
:1434380023E430E001E010E00E94C2168A010E94C9142224CE
:14344C00288222E430E004E010E00E94C21684EB888323E4DD
:1434600030E004E010E00E94C2168A010E94C91484EB888376
:1434740021E430E004E010E00E94C2168A010E94C91482E372
:14348800888322E430E004E010E00E94C21682E3888323E44A
:14349C0030E004E010E00E94C2168A010E94C91422242882C4
:1434B00021E430E004E010E00E94C2162224288223E430E09E
:1434C40001E010E00E94C2168B010E94C9148AE5888323E41D
:1434D80030E001E010E00E94C2168AE5888322E430E001E014
:1434EC0010E00E94C2168A010E94C9142224288221E430E053
:1435000001E010E00E94C2168B010E94C9142224288222E46B
:1435140030E004E010E00E94C2162224288223E430E004E05A
:1435280010E00E94C2168A010E94C91484EB888321E430E08C
:14353C0004E010E00E94C2168A010E94C91482E3888322E4AD
:1435500030E004E010E00E94C21682E3888323E430E004E09E
:1435640010E00E94C2168A010E94C9142224288221E430E0DA
:1435780004E010E00E94C2168B010E94C9142224288222E4F0
:14358C0030E004E010E00E94C21684EB888323E430E004E058
:1435A00010E00E94C2168A010E94C9142224288222E430E09D
:1435B40001E010E00E94C2168A010E94C9148AE5888321E42F
:1435C80030E004E010E00E94C2168A010E94C9142224288297
:1435DC0022E430E005E010E00E94C21684EB888323E430E0E5
:1435F00005E010E00E94C2168A010E94C91484EB888321E4EF
:1436040030E005E010E00E94C2168A010E94C91484EB8883CF
:1436180021E430E001E010E00E94C21684EB888321E430E0AF
:14362C0004E010E00E94C2168B010E94C91482E3888322E4BB
:1436400030E001E010E00E94C21682E3888323E430E001E0B3
:1436540010E00E94C21682E3888322E430E004E010E00E94FC
:14366800C21682E3888323E430E004E010E00E94C2168A0116
:14367C000E94C9142224288221E430E001E010E00E94C2166B
:143690002224288221E430E004E010E00E94C2168B010E94A5
:1436A400C91482E3888322E430E005E010E00E94C21682E3FB
:1436B800888323E430E005E010E00E94C2168A010E94C91483
:1436CC008AE5888322E430E001E010E00E94C2168AE5888395
:1436E00023E430E001E010E00E94C2168AE5888322E430E0E4
:1436F40004E010E00E94C2168AE5888323E430E004E010E00F
:143708000E94C2168AE5888322E430E005E010E00E94C21654
:14371C008AE5888323E430E005E010E00E94C2168A010E948C
:14373000C9148AE5888321E430E005E010E00E94C21600E9E1
:1437440011E00E94C9140E94FC1200E911E00E94C914219641
:143758000C945F1E0E94641E229768E748E28AE090E05C01B3
:14376C00222433243982288222E001E03ADB00E911E00E94D3
:14378000C91400E911E00E94C9143EC0688322E403E00E948B
:143794001C1584EB888322E404E00E941C15042F11270E94AC
:1437A800C91486E4888321E403E00E941C158AE5888321E481
:1437BC0004E00E941C15042F11270E94C91484EB888322E4D8
:1437D00003E00E941C15688322E404E00E941C15042F11271C
:1437E4000E94C9148AE5888321E403E00E941C1586E48883A8
:1437F80021E404E00E941C15042F11270E94C9142501C2012E
:14380C0001975C0122243324241435040CF4B8CF22960C94C6
:143820006B1E0E94501E4091190255274C36E0E05E0709F4EF
:143834004CC04D36E0E05E0709F43FC08DE690E084179507B6
:1438480024F14B32E0E05E070CF484C18EE390E08417950758
:14385C0084F003E010E09A010E94211EF8018BEA90E0E80FC0
:14387000F91F2790379006900CBEF10119944236E0E05E0712
:1438840009F467C14436E0E05E0789F165C14337E0E05E072D
:1438980079F04437E0E05E0791F04337E0E05E070CF458C1DA
:1438AC004A37E0E05E0709F453C152C10E94FC1252C18DE608
:1438C000809318024EC184E7809318024AC18CE68093180276
:1438D40046C181E090E090931502809314023FC12224332408
:1438E800309215022092140238C184E68093180234C14090D6
:1438FC0010025090110220900E0230900F020AE012E00E94A4
:143910000D1E3A932A931A930A93810192010E94191F109312
:143924000F0200930E023093110220931002180129010AE013
:1439380012E00E940D1E3A932A931A930A93810192010E9431
:14394C004A200CF008C10AE012E00E940D1E10930F02009348
:143960000E023093110220931002FBC0409010025090110218
:1439740020900E0230900F020AE012E00E940D1E3A932A937B
:143988001A930A93810192010E940E1F10930F0200930E02A6
:14399C0030931102209310028EE092E006E012E00E940D1EF7
:1439B0009A938A930E943F200CF0D3C006E012E00E940D1E84
:1439C40010930F0200930E023093110220931002C6C0809166
:1439D80018028C3631F481E090E09093170280931602809191
:1439EC0018028D3619F481E08093180280911802843719F45C
:143A00008BE08093180280911802843609F0A9C085E180935A
:143A14001802A5C0809118028C3631F482E090E090931702FF
:143A280080931602809118028D3619F482E0809318028091C4
:143A3C001802843719F48CE08093180280911802843609F01D
:143A500088C086E18093180284C0809118028C3631F483E0CD
:143A640090E09093170280931602809118028D3619F483E019
:143A78008093180280911802843719F48DE08093180280916F
:143A8C001802843609F067C087E18093180263C0809118024F
:143AA0008C3631F484E090E0909317028093160280911802C5
:143AB4008D3619F484E08093180280911802843719F48EE03C
:143AC8008093180280911802843609F046C088E18093180243
:143ADC0042C0809118028C3631F485E090E09093170280939E
:143AF0001602809118028D36A1F585E08093180230C0809193
:143B040018028C3631F486E090E0909317028093160280915E
:143B180018028D3611F586E0809318021EC0809118028D3657
:143B2C00D1F487E08093180216C0809118028D3691F488E07B
:143B4000809318020EC0809118028D3651F489E080931802AD
:143B540006C00E94531603C08AE78093180222242092190218
:143B68000C94551E3A932A931A930A9308956894DA92D12E5E
:143B7C0004C0E894DA92D12ED32617FF04C0109500950F5F0F
:143B90001F4F37FF04C0309520952F5F3F4F0E94DC1DD7FEB3
:143BA40004C0109500950F5F1F4FD9900895689401C0E894F4
:143BB800EA92FA928A93EE24FF2480E1000F111FEE1CFF1CDA
:143BCC00E216F30618F0E21AF30A03958A95A1F716F40E2D5F
:143BE0001F2D8991F990E9900895689401C0E8942A93FA924A
:143BF400EA92FF24EE2420E1000FFF1CEE1CE11610F0E11AE5
:143C080003952A95B9F70EF40E2DE990F99029910895EA938E
:143C1C00FA930A92E02FF12FD895002D3196D895102D31966A
:143C3000D895202D3196D895302D0990F991E99108950A925F
:143C44001A928A939A93029FC001129F900D039F900D8C01FA
:143C580099918991199009900895A990B990C990D990E99078
:143C6C00F990499159910895A990B990C990D990E990F99014
:143C8000499159916991799108957A936A935A934A93FA926B
:143C9400EA92DA92CA92BA92AA9208955A934A93BA92AA9261
:143CA8000895A990B9904991599108957A936A935A934A93B4
:143CBC000895499159916991799108957A936A935A934A931E
:143CD000BA92AA920895A990B99049915991699179910895D4
:143CE4007A936A935A934A93DA92CA92BA92AA920895A990D2
:143CF800B990C990D99049915991699179910895009510950E
:143D0C00209530950F5F1F4F2F4F3F4F0895AA93BA93EA939D
:143D2000FA930A92AF81B885ED81FE810030010731F0D89546
:143D34000D92319601501040F7CF0990F991E991B991A9918D
:143D480024960895689401C0E8940E94BA1F0E94501F09F44E
:143D5C0047C0E62ED52EC42EB32EA22E912E802E0081118112
:143D7000228133810E94501F09F443C0842F952F8C199D0915
:143D8400B9F072F49095809501964C2D5D2D8831B0F5359520
:143D98002795179507950197D1F708C0883110F5B594A794A9
:143DAC00979487940197D1F766272EF0080D191D2A1D3B1DC8
:143DC00009C0801A910AA20AB30A082D192D2A2D3B2D3323F8
:143DD4001AF40E94841E60E80E94751F02C00E94A31F0E9443
:143DE800C91F08950081118122813381C6F70E94581FA9F366
:143DFC0040E83427F2CF082D192D2A2D3B2D4C2D5D2D6E2D97
:143E100033233AF70E94841E60E8E3CFFA93EA93EC2FFD2F88
:143E240032960E94A81EE991F99124960895FA93EA93EC2FDA
:143E3800FD2F32960E94A61EE991F991249608954A935A93F7
:143E4C006A930E94601FF1F05523C2F04F31A8F44731C1F0F4
:143E600050F44195495E05C035952795179507954A95D1F753
:143E74000DC04751000F111F221F331F4A95D1F705C03FE771
:143E8800232F132F032F04C0662311F00E94841E69915991EA
:143E9C00499108950FD029F0662311F00E94841E989408950C
:143EB000002329F4112319F4222309F433230895F7DF79F009
:143EC400632F6078220F331F432F5FE7451B5527504026951E
:143ED80030E8232B3327989408954427552766270895E2DF7B
:143EEC0021F19A938A938EE790E0332351F0369527951795B7
:143F0000079548175907C4F44F5F5F4FF4CF809590950196AA
:143F14002223AAF0000F111F221F481759071CF0415050404E
:143F2800F5CF002711272227332789919991089533270FEF86
:143F3C00102F2FE7322F89919991B4DF39F041585F4F342F11
:143F5000220F36952795362B0895AADF21F00F9300E830272C
:143F64000F910895F8DF3A932A931A930A9308958A929A927C
:143F7800AA92BA92CA92DA92EA92FA924A935A936A937A9309
:143F8C008A939A930895999189917991699159914991F990A5
:143FA000E990D990C990B990A9909990899008950E94BA1FF6
:143FB400AA93BA930E94601FD1F1E62ED52EC42EB32EA22ED2
:143FC800912E802E00811181228133810E94601F61F16E2508
:143FDC004C0D5D1D403853075CF541387FEF570764F1A29E01
:143FF000B12DA02D919E912D802DA09E800D911DA31FB31F6B
:14400400829E800D911DA31FB31F929E900DA11DB31FA19E1D
:14401800900DA11DB31F2B2F1A2F092F880F001F111F221F65
:14402C00331F0E94751FB991A9910E94C91F08950FEF102F10
:144040002FE74FE7F6CF0027102F202F302FF1CFFA93EA937D
:14405400EA81FB810E94D81FE991F991229608950E94A61E19
:1440680033233AF00E94581F11F001E00895002708950FEF6A
:14407C000895FA93EA93EA81FB810E943220E991F9912296F2
:1440900000230895FA93EA93EC2FFD2F32960E943220E991D5
:0840A400F99124960023089510
:00000001FF
